:020000040800F2
:10000000008001202D6B0008A13F0008A33F0008DD
:10001000A53F0008A73F0008A93F00080000000016
:10002000000000000000000000000000AB3F0008DE
:10003000AD3F000800000000AF3F0008B13F0008DE
:100040007D6B00087D6B00087D6B00087D6B0008F0
:100050007D6B00087D6B00087D6B00087D6B0008E0
:100060007D6B00087D6B00087D6B00087D6B0008D0
:100070007D6B00087D6B00087D6B00087D6B0008C0
:100080007D6B00087D6B00087D6B00087D6B0008B0
:100090007D6B00087D6B00087D6B00087D6B0008A0
:1000A0007D6B00087D6B00087D6B00087D6B000890
:1000B000614000086D400008794000087D6B000831
:1000C0007D6B00087D6B00087D6B00087D6B000870
:1000D0007D6B00087D6B00087D6B00087D6B000860
:1000E000194000087D6B00087D6B00087D6B0008DF
:1000F0007D6B00087D6B00087D6B00087D6B000840
:100100007D6B00087D6B00087D6B00087D6B00082F
:100110007D6B00087D6B00087D6B00087D6B00081F
:100120007D6B00087D6B00087D6B00087D6B00080F
:100130007D6B00087D6B00087D6B00087D6B0008FF
:100140007D6B00087D6B00087D6B00087D6B0008EF
:100150007D6B00087D6B00087D6B00087D6B0008DF
:100160007D6B00087D6B00087D6B00087D6B0008CF
:100170007D6B00087D6B00087D6B000800000000AF
:080180007D6B00087D6B000897
:1001900010B5054C237833B9044B13B10448AFF3C1
:1001A00000800123237010BDB0000020000000007B
:1001B0005C7400080C4B43B10C480D4910B5AFF30B
:1001C00000800C48036823B910BD0A48036833B99E
:1001D0007047094B002BF7D0BDE810401847064B7D
:1001E000002BF5D0184700BF000000005C74000829
:1001F000B4000020B000002000000000034613F807
:10020000012B002AFBD1181A0138704700000000AA
:1002100001F0FF01102A2BDB10F0070F08D010F8B7
:10022000013B013A8B422DD010F0070F42B3F6D1BB
:10023000F0B441EA012141EA014122F007047FF0D4
:1002400000070023F0E80256083C85EA010586EA2B
:10025000010685FA47F5A3FA87F586FA47F6A5FA67
:1002600087F68EB9EED1F0BC01F0FF0102F0070273
:1002700032B110F8013B013A83EA010313B1F8D11E
:100280000020704701387047002D06BF35460338FF
:10029000073815F0010F07D1013015F4807F02BF38
:1002A000013015F4C03F0130F0BC0138704700BF89
:1002B00053B94AB9002908BF00281CBF4FF0FF31CD
:1002C0004FF0FF3000F07AB9ADF1080C6DE904CEC3
:1002D00000F006F8DDF804E0DDE9022304B0704721
:1002E0002DE9F0478C460D460446089E002B51D15F
:1002F0008A4217466DD9B2FA82FEBEF1000F0BD0CA
:10030000CEF1200C01FA0EF520FA0CFC02FA0EF7E1
:100310004CEA050C00FA0EF44FEA174A250CBCFB18
:10032000FAF81FFA87F90AFB18CC45EA0C4508FBD6
:1003300009F3AB420AD9ED1908F1FF3280F02381AD
:10034000AB4240F22081A8F102083D44ED1AA4B26C
:10035000B5FBFAF00AFB105544EA054400FB09F925
:10036000A14509D9E41900F1FF3380F00A81A145C4
:1003700040F2078102383C44A4EB090440EA0840FB
:100380000021002E61D024FA0EF400233460736043
:10039000BDE8F0878B4207D9002E54D0002186E8B3
:1003A00021000846BDE8F087B3FA83F1002940F048
:1003B0008E80AB4202D3824200F2FA80841A65EB4F
:1003C00003050120AC46002E3FD086E81010BDE8A2
:1003D000F08712B90127B7FBF2F7B7FA87FEBEF133
:1003E000000F34D1EB1B3A0C1FFA87FC0121B3FB41
:1003F000F2F8250C02FB183345EA03450CFB08F321
:10040000AB4207D9ED1908F1FF3002D2AB4200F23E
:10041000D1808046ED1AA3B2B5FBF2F002FB105575
:1004200043EA05440CFB00FCA44507D9E41900F19C
:10043000FF3302D2A44500F2B8801846A4EB0C04A6
:1004400040EA08409DE731463046BDE8F087CEF1EE
:10045000200405FA0EF307FA0EF720FA04F83A0C16
:1004600025FA04F448EA0308B4FBF2F14FEA184510
:1004700002FB11441FFA87FC45EA044501FB0CF31B
:10048000AB4200FA0EF409D9ED1901F1FF3080F00A
:100490008A80AB4240F2878002393D44EB1A1FFA52
:1004A00088F5B3FBF2F002FB103345EA034500FB8D
:1004B0000CF3AB4207D9ED1900F1FF386FD2AB4214
:1004C0006DD902383D44EB1A40EA01418FE7C1F192
:1004D000200722FA07F88B4005FA01F448EA0303E3
:1004E00020FA07FE4FEA134CFD404EEA040EB5FB1E
:1004F000FCF94FEA1E440CFB19551FFA83F844EA35
:10050000054509FB08F4AC4202FA01F200FA01FACF
:1005100008D9ED1809F1FF3043D2AC4241D9A9F115
:1005200002091D442D1B1FFA8EFEB5FBFCF00CFBCF
:1005300010554EEA054400FB08F8A04507D9E41819
:1005400000F1FF3529D2A04527D902381C4440EAE2
:100550000940A4EB0804A0FB02894C45C6464D4661
:1005600015D312D056B1BAEB0E0364EB050404FAAE
:1005700007F7CB401F43CC40376074600021BDE8D3
:10058000F0871846F8E69046E0E6C245EAD2B8EBB6
:10059000020E69EB03050138E4E72846D7E7404639
:1005A00091E78146BEE7014678E702383C4445E7DB
:1005B000084608E7A8F102083D442BE7704700BF52
:1005C00038B50A4B054618684FF47A73B0FBF3F060
:1005D00000F0B0F8044638B9024629464FF0FF3023
:1005E00000F050F8204638BD012038BD380000200A
:1005F00010B5032000F028F80020FFF7E1FF0446C3
:1006000018B903F0F5FB204610BD0124FBE70000FC
:10061000024A136801331360704700BFF8020020DC
:10062000014B1868704700BFF802002038B5044637
:10063000FFF7F6FF631C054618BF0134FFF7F0FF14
:10064000401B8442FAD838BDC31E042B10B50446A3
:1006500003D9B721094803F0B3FB094AD36823F44F
:10066000E0631B041B0C43F0BF63240243F400331C
:1006700004F4E0641C43D46010BD00BF447500085E
:1006800000ED00E00F2A70B504460E46154603D96A
:10069000CF211A4803F094FB0F2E03D9D02117481D
:1006A00003F08EFB164BD968C1F30221C1F1070399
:1006B0000A1D042B28BF04230120062A8CBF0339FE
:1006C000002100FA03F2013A8840324001388A40A2
:1006D0000540002C42EA05024FEA0212AFBF04F1C6
:1006E000604404F00F04074BD2B2A5BF04F5614487
:1006F000D2B21A5584F8002370BD00BF44750008BB
:1007000000ED00E014ED00E010B5041E03DAE32173
:10071000064803F055FB6209012304F01F0403FAA5
:1007200004F4034B43F8224010BD00BF4475000899
:1007300000E100E00138B0F1807F0AD2064B074AA1
:100740005860F02182F823100020072298601A6078
:1007500070470120704700BF10E000E000ED00E0AE
:10076000042810B5084C0AD020B14FF4CA710748CC
:1007700003F026FB236823F00403236010BD2368E5
:1007800043F00403F9E700BF10E000E044750008FF
:10079000704708B5FFF7FCFF08BD00002DE9F04FDA
:1007A000B0F1904F85B004460D461ED0A84B98423C
:1007B0001BD003F58063984217D003F580639842FD
:1007C00013D003F5806398420FD003F580639842FD
:1007D0000BD003F58063984207D003F580639842FD
:1007E00003D0C3219B4803F0EBFA2B689AB212B1F5
:1007F0001B0C1B041BB1C421964803F0E1FA6B6883
:10080000122B03D8944ADA40D10713D4934923F426
:1008100000128A420ED001F580118B420AD0A1F558
:1008200070218A4206D08E4A934203D0C52189485E
:1008300003F0C6FAAB68022B03D9C621854803F042
:10084000BFFA884FDFF8209200262B6833FA06F2B1
:1008500002D105B0BDE8F08F4FF0010A0AFA06FA9E
:1008600013EA0A0800F0E5806B6823F01003022BFE
:1008700037D1B4F1904F1ED0754B9C421BD003F57D
:1008800080639C4217D003F580639C4213D003F52C
:1008900080639C420FD003F580639C420BD003F52C
:1008A00080639C4207D003F580639C4203D0D5212E
:1008B000684803F085FA2B690F2B03D9D6216548C8
:1008C00003F07EFAF20804EB820206F007039900B7
:1008D000106A0F238B4020EA03002B698B400343EF
:1008E00013626A68206873004FF0030B0BFA03FB76
:1008F00002F003016FEA0B0B22F0100200EA0B007A
:100900009940013A0143012A216018D8EA68032A74
:1009100005D9EA214F48019303F052FA019BA168DF
:10092000EA680BEA01019A400A43A2606A686168BA
:10093000C2F3001221EA0A01B2400A436260696808
:1009400001F00302032A08D1E26A22EA0A0AC1F38B
:10095000C002B24042EA0A02E262E2680BEA020B1B
:10096000AA6802FA03F343EA0B03CA00E36060D506
:100970003B6E43F001033B663B6E26F0030003F041
:10098000010300F18040039300F58030039B8268EF
:1009900006F003034FF00F0C4FEA830E0CFA0EF330
:1009A000B4F1904F22EA030C45D0294B9C4244D02D
:1009B00003F580639C4242D003F580639C4240D0A3
:1009C00003F580639C423ED003F580639C423CD09B
:1009D00003F580639C4214BF0723062303FA0EF33A
:1009E00043EA0C038360D9F800206FEA0800CB03C8
:1009F00054BF024048EA0202C9F80020D9F8042096
:100A00008B0354BF024048EA0202C9F80420D9F817
:100A10000820CB0254BF024048EA0202C9F808206D
:100A2000D9F80C308A0254BF034048EA0303C9F8DE
:100A30000C30013609E70023D0E70123CEE702237B
:100A4000CCE70323CAE70423C8E70523C6E700BFB2
:100A5000000400487F7500080F0806000000111010
:100A600000002210001002400004014038B5054685
:100A70000C4621B94FF4D171044803F0A1F92B6958
:100A80001C4214BF0120002038BD00BF7F75000844
:100A900070B5054616460C4621B94FF4E171084879
:100AA00003F08EF9012E06D940F2C311044803F079
:100AB00087F9AC6170BD002EFBD1AC6270BD00BF88
:100AC0007F75000838B505460C4621B94FF4EC7126
:100AD000034803F075F96B695C406C6138BD00BF79
:100AE0007F75000808B5044B5969014202D058616E
:100AF00003F09EFA08BD00BF00040140024B1868D5
:100B000000F4C060704700BF00700040B0F5007F87
:100B100010B51C4C17D0B0F5806F03D0B8211A481F
:100B200003F04EF9236803F4C063B3F5806F27D058
:100B3000236823F4C06343F48063236020E0013B17
:100B400016E0032010BD236803F4C063B3F5007FF3
:100B500016D0236823F4C06343F4007323600B4B67
:100B60001A68322353430A4AB3FBF2F32246013395
:100B70006169490501D5002BE1D153695B05E0D4DA
:100B8000002010BD00700040B8750008380000203B
:100B900040420F0037B51E4DAB6DDA00044618D544
:100BA000FFF7ACFFB0F5007F23D1802C29D9A02C12
:100BB0008CBF02200120174A136823F00703034368
:100BC0001360136803F00703181A18BF012003B05D
:100BD00030BDAB6D43F08053AB65AB6D03F080531C
:100BE0000193019BFFF78AFFAB6D23F08053AB6548
:100BF000D8E7802C07D808D0A4F170035842584198
:100C0000D9E70020D7E70320D5E70220D3E700BFCC
:100C10000010024000200240254B9A68D96812F06B
:100C20000C0205D00C2A15D101F00301012918D1BD
:100C300019682048090755BFD3F894101968C1F303
:100C40000321C1F3031150F8210082B30C2A09D00B
:100C500000207047042A29D0082A174818BF00200E
:100C600070470020D968DA6801F00301C2F302126C
:100C7000022902F1010205D0032912D0D968C1F37B
:100C8000062103E0D9680D48C1F30621DB68B0FBFB
:100C9000F2F0C3F34163013348435B00B0FBF3F070
:100CA0007047D9680448C1F30621EFE7034870474D
:100CB000001002408C74000800127A000024F40036
:100CC0002DE9F743054618B9012003B0BDE8F083CC
:100CD000036833B1DA0604D140F2AD11A24803F043
:100CE0006FF8A24C2B68A668E768DB0606F00C06D6
:100CF00007F0030759D5AB69012B04D94FF4DB7119
:100D0000994803F05DF8EB69FF2B04D940F2B71165
:100D1000954803F055F82B6A33F0300308D0402B88
:100D200006D0802B04D04FF4DC718F4803F048F8D4
:100D30001EB10C2E6BD1012F69D12368980702D503
:100D4000AB69002BC0D02368286A190756BFD4F8B6
:100D5000943023681B0903F0F003834242D2FFF76B
:100D600019FF0028B0D1236843F0080323602368EB
:100D70002A6A23F0F003134323606368EA6923F4CB
:100D80007F4343EA02236360FFF746FFA368784A84
:100D9000C3F30313D35C03F01F03D840754B1860F3
:100DA0000020FFF70DFC00288FD12B68D80765D4F1
:100DB0002B68990700F1B1802B68180700F1FF80BC
:100DC0002B68590700F12D81AB6A022B04D940F240
:100DD0007531654802F0F4FFAB6A002B40F0988152
:100DE000002072E7236843F008032360236823F0A0
:100DF000F003034323606368EA6923F47F4343EA13
:100E000002236360FFF7C6FE0028BDD05CE7AB6934
:100E10001BB3236843F001032360FFF701FC804606
:100E200023689A0711D5236843F0080323602368D9
:100E30002A6A23F0F003134323606368EA6923F40A
:100E40007F4343EA02236360AFE7FFF7E9FBA0EBD0
:100E500008000228E4D9032037E7236823F00103C0
:100E60002360FFF7DDFB804623689B079DD5FFF7D6
:100E7000D7FBA0EB08000228F6D9ECE76B6833F447
:100E8000803207D0B3F5A02F04D04FF40871364854
:100E900002F096FF082E03D00C2E08D1032F06D1A6
:100EA00023689A0384D56B68002B81D10CE76B68AB
:100EB000B3F5803F11D1236843F480332360FFF7FB
:100EC000AFFB804623689B033FF572AFFFF7A8FB9B
:100ED000A0EB08006428F5D9BDE7B3F5A02F04D135
:100EE000236843F480232360E5E7226822F48032FC
:100EF0002260226822F480222260002BDFD1FFF7DB
:100F00008FFB8046236898037FF552AFFFF788FB7D
:100F1000A0EB08006428F5D99DE7EB6833F48073F3
:100F200004D040F25321104802F04AFF2B691F2BD6
:100F300004D94FF415710C4802F042FF042E03D07F
:100F40000C2E19D1022F17D12368590503D5EB6850
:100F5000002B3FF4B9AE63682A6923F0F85343EAE3
:100F60000263636028E700BFF375000800100240C9
:100F7000BC74000838000020EB687BB1236843F4A0
:100F800080732360FFF74CFB074623685A05E2D4C1
:100F9000FFF746FBC01B0228F7D95CE7236823F460
:100FA00080732360FFF73CFB074623685B057FF5F2
:100FB00003AFFFF735FBC01B0228F6D94BE76B697F
:100FC000012B04D94FF42571A04802F0F9FE6B699A
:100FD0009BB1D4F8943043F00103C4F89430FFF788
:100FE0001FFB0746D4F894309A073FF5E9AEFFF7A8
:100FF00017FBC01B0228F5D92DE7D4F8943023F055
:101000000103C4F89430FFF70BFB0746D4F8943083
:101010009B077FF5D5AEFFF703FBC01B0228F5D970
:1010200019E7AB68012B06D9052B04D040F2E72164
:10103000864802F0C5FEA36DDF0029D4A36D43F0FE
:101040008053A365A36D03F080530193019B4FF080
:1010500001087F4F3B68D8051DD5AB68012B2BD10C
:10106000D4F8903043F00103C4F89030FFF7D8FA79
:1010700041F288390746D4F890309A0742D5B8F142
:10108000000F3FF4A1AEA36D23F08053A3659BE650
:101090004FF00008DDE73B6843F480733B60FFF7E7
:1010A000BFFA81463B68D905D7D4FFF7B9FAA0EB60
:1010B00009000228F6D9CEE6052B06D1D4F89030E7
:1010C00043F00403C4F89030CAE7D4F8902022F02B
:1010D0000102C4F89020D4F8902022F00402C4F851
:1010E0009020002BC2D1FFF79BFA41F288390746C6
:1010F000D4F890309B07C2D5FFF792FAC01B484541
:10110000F6D9A8E6FFF78CFAC01B4845B3D9A2E68A
:101110000C2E3FF4D9AD022B79D1EB6A032B04D905
:1011200040F27F31494802F04BFE2B6B013B072B0D
:1011300004D94FF46071454802F042FE6B6B083BE6
:101140004E2B04D940F28131404802F039FEAB6B9E
:10115000072B06D0112B04D040F283313B4802F01C
:101160002FFEEA6B082A04D84FF4AA73D340DE0797
:1011700004D440F28531354802F022FE2A6C082A58
:1011800004D84FF4AA73D340D80704D440F2863170
:101190002E4802F015FE236823F080732360FFF7CA
:1011A0003FFA0646236899012BD46A6BEB6A43EA3F
:1011B00002232A6B013A43EA0213AA6B120943EA9B
:1011C0004243EA6B5208013A43EA42532A6C5208FE
:1011D000013A43EA4263E360236843F0807323608B
:1011E000E36843F08073E360FFF71AFA054623686B
:1011F0009A013FF5F5ADFFF713FA401B0228F6D927
:1012000029E6FFF70DFA801B0228CBD923E62368D5
:1012100023F080732360236813F0205F02BFE3682C
:1012200023F00303E360E36823F0887323F480333F
:10123000E360FFF7F5F9054623689B017FF5D0AD24
:10124000FFF7EEF9401B0228F6D904E6F375000813
:10125000007000402DE9F0410D46044610B9012010
:10126000BDE8F0810368013B0E2B04D940F2254113
:10127000684802F0A5FD042D04D940F226416548D6
:1012800002F09EFD644A136803F007039D423ED8B6
:101290002368D90746D423689A0778D45E4A13682E
:1012A00003F007039D42C0F0918023685B4D13F06B
:1012B000040F40F0978023681B0717D5236933F488
:1012C00080620CD023F40072B2F5A06F07D0B3F5A2
:1012D000C06F04D040F2BF414E4802F071FDAB68D0
:1012E000226923F4605343EAC203AB60FFF794FC26
:1012F000AB684B4AC3F30313BDE8F041D35C03F082
:101300001F03D840474B18600020FFF759B91368F6
:1013100023F007032B431360136803F007039D4278
:101320009DD1B5E76368032B04D940F23D413948AC
:1013300002F046FD6268394E032A33681BD113F070
:10134000007F8CD0B36823F003031343B360FFF72F
:1013500067F941F288380746B368626803F00C0306
:10136000B3EB820F97D0FFF75BF9C01B4045F3D971
:101370000320BDE8F081022A02D113F4003FE0E728
:1013800012B913F0020FDCE713F4806FD9E7A368FA
:1013900033F0800212D023F02002902A0ED023F0E6
:1013A0004002A02A0AD023F01002C02A06D0F02B57
:1013B00004D040F29941174802F002FD174AA16893
:1013C000936823F0F0030B43936067E7136823F0FF
:1013D00007032B431360136803F007039D427FF458
:1013E0003EAF62E7E36833F480620CD023F400720E
:1013F000B2F5A06F07D0B3F5C06F04D04FF497617A
:10140000044802F0DDFCAB68E26823F4E0631343B8
:10141000AB6050E7F3750008002002400010024066
:10142000BC74000838000020014B1868704700BFEA
:1014300038000020054B064A9B68C3F30223D35CA7
:10144000044A106803F01F03D840704700100240A0
:10145000CC74000838000020054B064A9B68C3F393
:10146000C223D35C044A106803F01F03D8407047BE
:1014700000100240CC74000838000020F8B5036862
:10148000032B04460E4604D940F64431674802F067
:1014900097FC6368013B072B04D940F6453163484C
:1014A00002F08EFCA368083B4E2B04D940F646316F
:1014B0005E4802F085FCA3695D4A134204D023F024
:1014C000887323F4803323B140F64731574802F044
:1014D00077FC584B2068DA6812F0030F1D4636D0AF
:1014E000DA6802F00302824248D1002A46D0DB6863
:1014F0006268C3F30213013393423FD12B6823F098
:1015000080632B60FFF78CF807462B6818013ED4E8
:10151000002E43D0012E68D12269082A04D84FF446
:10152000AA73D340D90704D440F6BE313F4802F035
:1015300047FC23692A69A0685B08591E22F4C0038E
:1015400023F4FE4343EA002343EA41533CE00228EC
:1015500010D0032814D0012810D11B689B0743D555
:10156000EB68626823F07303013A184340EA021003
:10157000E860C3E71B6813F4806FF1D10120F8BD68
:101580001A689703ECD41B6813F4802FF5E7FFF774
:1015900047F8C01B0228B8D90320F8BDE368072B21
:1015A00006D0112B04D040F69A31204802F008FCF6
:1015B0002B69A26823F41F3323F4407343EA022308
:1015C000E268120943EA42432B612B6843F08063CF
:1015D0002B60FFF725F806462B681B0120D52B69E9
:1015E000A26913432B610020F8BD6269082A04D860
:1015F0004FF4AA73D340DA0704D44FF43D610B488B
:1016000002F0DEFB63692A69A0685B08591E22F0BC
:10161000C06323F4FE4343EA002343EA4163D3E774
:10162000FEF7FEFF801B0228D6D9B5E72B7600080F
:101630000000110100100240F8B50368032B0546B5
:101640000E4604D940F61141594802F0B9FB6B68C7
:10165000013B072B04D940F61241554802F0B0FB7C
:10166000AB68083B4E2B04D940F61341504802F0BA
:10167000A7FB6B694F4A134204D023F0807323F415
:10168000803323B140F61441494802F099FB4A4B9C
:101690002868DA6812F0030F1C4634D0DA6802F0CA
:1016A0000302824246D1002A44D0DB686A68C3F351
:1016B0000213013393423DD1236823F0805323600A
:1016C000FEF7AEFF0746236899003CD4002E41D0B8
:1016D0002A69082A04D84FF4AA73D340DA0704D43D
:1016E00040F69F41324802F06BFB2B696269A868A3
:1016F0005B08591E22F0C06323F4FE4343EA002333
:1017000043EA41633CE0022810D0032814D00128AA
:1017100010D11B689B0743D5E3686A6823F0730305
:10172000013A184340EA0210E060C5E71B6813F471
:10173000806FF1D10120F8BD1A689703ECD41B68C3
:1017400013F4802FF5E7FEF76BFFC01B0228BAD910
:101750000320F8BDEB68072B06D0112B04D040F610
:101760006741134802F02CFB6369AA6823F41F3316
:1017700023F4407343EA0223EA68120943EA42432E
:101780006361236843F080532360FEF749FF0646F8
:1017900023689B0005D563696A6913436361002070
:1017A000F8BDFEF73DFF801B0228F1D9D0E700BF4E
:1017B0002B76000800000101001002400368C3F30B
:1017C00013032DE9F34704461BB9DB21654802F0FA
:1017D000F7FA266816F400662CD0636E33F44003E3
:1017E00003D0E3215F4802F0EBFA616EB1F5800FA0
:1017F00035D002D8C1B101261CE0B1F5000F0DD0E3
:10180000B1F5400FF7D1584A616ED2F8883023F411
:1018100040030B43C2F8883000260BE0524AD368DD
:1018200043F48033D360EEE7201DFFF727FE064622
:101830000028E8D02368DB040FD5A36E33F0407393
:1018400004D040F22111474802F0BAFAA16EB1F17A
:10185000807F7FD009D8B1B10126354622E0002132
:1018600004F12000FFF7E8FEE1E7B1F1007F04D0CA
:10187000B1F1407FF0D1354609E03B4AD36843F4EB
:101880008033D360F7E7201DFFF7F8FD0546002DF4
:1018900066D1354AA16ED2F8883023F040730B43ED
:1018A000C2F8883023689F0340F11082D4F8843056
:1018B00033F4407304D04FF4AB712A4802F080FA3D
:1018C000294FBB6DD80040F12F824FF00008DFF8A0
:1018D0009C90D9F8003043F48073C9F80030FEF7CB
:1018E0009FFE8246D9F80030D90541D5002D46D15A
:1018F000D7F8903013F4407315D0D4F88420934275
:1019000011D0D7F89030D7F8902042F48032C7F841
:101910009020D7F8902023F4407322F48032C7F847
:101920009020C7F89030DA0709D5FEF779FE41F22A
:1019300088390546D7F890309B0740F1C081D7F829
:101940009030D4F8842023F440731343C7F89030C8
:10195000354614E0002104F12000FFF76DFE95E705
:101960002E469FE72B7600080010024000700040D2
:10197000FEF756FEA0EB0A000228B3D90325B8F102
:10198000000F03D0BB6D23F08053BB652368DE07D7
:1019900010D5A36B032B04D940F2AB11B84802F069
:1019A0000FFAB84AA16BD2F8883023F003030B4337
:1019B000C2F888302368980711D5E36B33F00C0325
:1019C00004D040F2B511AE4802F0FAF9AD4AE16B2D
:1019D000D2F8883023F00C030B43C2F88830236818
:1019E000590711D5236C33F0300304D040F2C111F4
:1019F000A34802F0E5F9A34A216CD2F8883023F01D
:101A000030030B43C2F8883023681A0711D5636C82
:101A100033F0C00304D040F2CF11994802F0D0F95E
:101A2000984A616CD2F8883023F0C0030B43C2F8A7
:101A300088302368DB0611D5A36C33F4407304D0DF
:101A400040F2DD118E4802F0BBF98E4AA16CD2F84B
:101A5000883023F440730B43C2F8883023689F0614
:101A600011D5E36C33F4406304D040F2E9118448AB
:101A700002F0A6F9834AE16CD2F8883023F440637F
:101A80000B43C2F8883023689E0511D5E36D33F40B
:101A9000402304D04FF4F971794802F091F9794A62
:101AA000E16DD2F8883023F440230B43C2F888302C
:101AB0002368580511D5236E33F4401304D040F247
:101AC000F9116F4802F07CF96E4A216ED2F8883025
:101AD00023F440130B43C2F888302368590614D509
:101AE000236D33F4805207D0B3F5005F04D040F289
:101AF0000121634802F064F9624A216DD2F888300E
:101B000023F440530B43C2F8883023681A0614D5D7
:101B1000636D33F4804207D0B3F5004F04D040F238
:101B20000D21574802F04CF9564A616DD2F88830C1
:101B300023F440430B43C2F888302368DB0514D5F7
:101B4000A36D33F4803207D0B3F5003F04D040F2E8
:101B500019214B4802F034F94A4AA16DD2F8883075
:101B600023F440330B43C2F8883023689F0419D50F
:101B7000E36E33F0406304D040F23221404802F07B
:101B80001FF9404AE16ED2F8883023F040630B43DE
:101B9000B1F1006FC2F8883040F09A80D36843F406
:101BA0008013D36023681E0319D5236F33F040637D
:101BB00004D040F25321324802F002F9314A216F39
:101BC000D2F8883023F040630B43B1F1006FC2F8C4
:101BD000883040F08980D36843F48013D360236851
:101BE000580318D5636F33F0406304D04FF41E716F
:101BF000234802F0E5F8234A616FD2F8883023F0D9
:101C000040630B43B1F1006FC2F8883078D1D368DC
:101C100043F48013D360236859041BD5A36F33F0BA
:101C2000405304D04FF42671154802F0C9F8154905
:101C3000A26FD1F8883023F040531343B2F1805F94
:101C4000C1F8883067D10221201DFFF717FC00285A
:101C500018BF054623681A0416D5E36F33F0804396
:101C600004D04FF43171064802F0AAF8054AE16F3A
:101C7000D2F8883023F080430B43C2F8883003E069
:101C80002B760008001002402368DB0313D5D4F83C
:101C9000803033F0004304D040F2D221284802F0D3
:101CA0008FF8284AD4F88010D2F8883023F0004307
:101CB0000B43C2F88830284602B0BDE8F087FEF733
:101CC000AFFC401B48457FF635AE57E635465DE62E
:101CD000B1F1806F7FF466AF0121201DFFF7CEFBCD
:101CE000002818BF05465DE7B1F1806F7FF477AF3C
:101CF0000121201DFFF7C2FB002818BF05466EE733
:101D0000B1F1806F87D10121201DFFF7B7FB0028BB
:101D100018BF05467FE7B2F1005F9BD1022104F1B5
:101D20002000FFF789FC92E7BB6D43F08053BB6551
:101D3000BB6D03F080530193019B4FF00108C6E592
:101D40002B7600080010024003685A6822F0E00277
:101D50005A604268B2F5827F0AD18268B2F5004FBC
:101D600002D0B2F5806F03D11A6822F040021A60E7
:101D7000826AB2F5005F07D11A6822F400521A6035
:101D80001A6842F400521A60012380F85D30002383
:101D900080F85C300320704770B504460D46164647
:101DA0002368986810F0800000D170BD6A1CF8D0DC
:101DB000FEF736FC801B8542F2D82046BDE8704015
:101DC000FFF7C2BFF8B505460C4616461F46296800
:101DD0008868204000D1F8BDB4F5C06F08BF0B7B08
:101DE000731CF5D0FEF71CFCC01B8642EFD82846BA
:101DF000BDE8F840FFF7A8BF70B513460D4616467C
:101E00000A464FF4C0510446FFF7DCFF28B1236EA9
:101E100043F02003236603200FE032462946204684
:101E2000FFF7BAFF0028F2D133462A464FF4C061CB
:101E30002046FFF7C7FF0028E9D170BD70B5044602
:101E4000002800F0D58003686A4A93420CD0A2F5BE
:101E50007842934208D002F58062934204D04FF456
:101E6000AA71654801F0ACFF63683BB1B3F5827FAE
:101E700004D040F25511604801F0A2FFA36833F48A
:101E8000806207D0B3F5004F04D04FF4AB715A48CD
:101E900001F096FFE368B3F5706F18D023F4407239
:101EA000B2F5006F13D023F40062B2F5C06F0ED00C
:101EB00023F41062B2F5806F09D023F48063B3F588
:101EC000407F04D040F257114B4801F079FFA369DD
:101ED00033F4007207D0B3F5802F04D04FF4AC7107
:101EE000454801F06DFF636B33F0080304D040F206
:101EF0005911414801F064FFE36933F0180306D03B
:101F0000202B04D04FF4AD713B4801F059FF236AF8
:101F100033F0800304D040F25B11374801F050FFEA
:101F2000636A33F0100304D04FF4AE71324801F00D
:101F300047FF636A83B9236933F0020304D040F298
:101F40005F112D4801F03CFF6369012B04D94FF468
:101F5000B071294801F034FF0023A36294F85D308A
:101F600003F0FF0223B984F85C20204601F086FFCD
:101F70000223216884F85D300B68E26823F0400397
:101F8000B2F5E06F0B604FF000032ED91846B2F5A2
:101F9000706F18BFA362236B2BB9B2F5E06F8CBFD3
:101FA000022301232363A6686368A5693343266976
:101FB000334366693343E6693343266A3343A66A8B
:101FC000334305F4007633430B60636A1A43636B53
:101FD0002D0C1A4305F004052A4302430123002077
:101FE0004A60206684F85D3070BD4FF48050D0E7C1
:101FF000012070BD00300140667600082DE9F843ED
:102000001E468368089F04460D46914623B140F260
:10201000CF41904801F0D4FE94F85C30012B00F0E1
:102020001581012384F85C30FEF7FAFA94F85D30EC
:10203000DBB2012B804660680AD0B0F5827F40F0A9
:102040000381A268002A40F0FF80042B40F0FC804E
:10205000002D49D0B9F1000F46D0002E44D094F89D
:102060005D30E2682168C4F84090042B1CBF052352
:1020700084F85D3000232366B2F5E06FA4F8466073
:10208000E687E3642365A4F84460A563A6874B68EC
:1020900001D8012E2AD923F480534B600B685B06CC
:1020A0005EBF0B6843F040030B60B2F5E06F56D99A
:1020B00008B1012E07D135F8023BCB60E38FA56351
:1020C000013B9BB2E3870125E38F9BB28BB9B4F848
:1020D00046309BB26BB9424639462046FFF78CFE2C
:1020E000002834D020232366012030E043F48053BD
:1020F000D3E72268936899070DD5E38F9BB253B15C
:102100004DB1A36B33F8021BD160A363E38F013B96
:102110009BB2E38700259368DB070FD5B4F8463000
:102120009BB25BB1236CD26823F8022B2364B4F812
:102130004630013B9BB2A4F846300125FEF770FA09
:10214000A0EB08008742BFD87E1CBDD0032001232E
:1021500084F85D30002384F85C30BDE8F88308B172
:10216000012E0BD1E38F9BB2012B51D935F8023BE5
:10217000CB60E38FA563023B9BB2E3870125E38F2E
:102180009BB223B9B4F846309BB2002BA3D022688F
:102190009368980711D5E38F9BB273B16DB1E38F4C
:1021A0009BB2012BA36B3BD933F8021BD160A36315
:1021B000E38F023B9BB2E387002522689368D9072F
:1021C0001DD5B4F846309BB2CBB1B4F846309BB2C3
:1021D000012B236C2CD9D16823F8021B2364B4F89B
:1021E0004630023B9BB2A4F84630B4F846309BB26E
:1021F000012B03D8536843F4805353600125FEF745
:102200000FFAA0EB08008742B9D87B1CB7D09DE736
:102210002B780B73A36B0133A363E38F013BABE715
:102220001B781373A36B0133A363E38F013BC1E7F7
:10223000127B1A70236C01332364B4F84630013BDF
:102240009BB2A4F84630D9E7022080E70220BDE81F
:10225000F88300BF6676000890F85D0070470000C4
:102260000368234A934210B504462BD0B3F1804F44
:1022700028D0A2F59432934224D002F58062934292
:1022800020D002F5806293421CD002F58062934216
:1022900018D002F58062934214D002F59032934236
:1022A00010D002F5406293420CD002F58062934256
:1022B00008D002F58062934204D040F2B1110D487B
:1022C00001F07EFD23680C48DA6842F00102DA6012
:1022D00099680140062908D09A680240B2F5803F0B
:1022E0001EBF1A6842F001021A60002010BD00BF34
:1022F000002C01409E760008070001000368234A75
:10230000934210B504462BD0B3F1804F28D0A2F5EC
:102310009432934224D002F58062934220D002F599
:10232000806293421CD002F58062934218D002F57D
:102330008062934214D002F59032934210D002F59D
:10234000406293420CD002F58062934208D002F5BD
:102350008062934204D04FF4E4710D4801F030FDE7
:102360002368DA6822F00102DA60196A41F2111278
:10237000114208D1196A40F24442114202BF1A6860
:1023800022F001021A60002010BD00BF002C0140A5
:102390009E760008704770477047704703681A6957
:1023A000910710B504460FD5DA6892070CD56FF087
:1023B00002021A619B6901229907027700F0858069
:1023C000FFF7E9FF0023237723681A69520710D526
:1023D000DA6850070DD56FF004021A619B6902227A
:1023E00013F4407F2277204675D0FFF7D4FF0023F7
:1023F000237723681A6911070FD5DA6812070CD5FD
:102400006FF008021A61DB6904229B0722772046DD
:1024100067D0FFF7C0FF0023237723681A69D0062F
:1024200010D5DA68D1060DD56FF010021A61DB699C
:10243000082213F4407F2277204658D0FFF7ABFFE5
:102440000023237723681A69D20708D5DA68D007F2
:1024500005D56FF001021A61204601F013FE2368D2
:102460001A69110608D5DA68120605D56FF08002E0
:102470001A61204600F01DF923681A69D00508D5B5
:10248000DA68110605D56FF480721A61204600F0F3
:1024900011F923681A69520608D5DA68500605D57D
:1024A0006FF040021A612046FFF777FF23681A6930
:1024B000910622D5DA6892061FD56FF020022046D9
:1024C0001A61BDE8104000F0F3B8FFF763FF204643
:1024D000FFF762FF76E7FFF75DFF2046FFF75CFF3F
:1024E00085E7FFF757FF2046FFF756FF93E7FFF713
:1024F00051FF2046FFF750FFA2E710BD304A0368A6
:10250000904212D0B0F1804F0FD0A2F59432904299
:102510000BD002F58062904207D002F580629042B3
:1025200003D002F59432904219D14A6823F0700327
:102530001343234A90421DD0B0F1804F1AD0A2F528
:102540009432904216D002F58062904212D002F589
:10255000806290420ED002F5943290420AD0194A1D
:10256000904207D002F58062904203D002F580626B
:10257000904203D1CA6823F4407313434A6923F09D
:102580008003134303608B68C3620B6883620C4B48
:1025900098420FD003F5006398420BD003F54063D7
:1025A000984207D003F58063984203D003F5806317
:1025B000984201D10B69036301234361704700BF57
:1025C000002C01400040014010B50446002869D0AD
:1025D0000368354A93422BD0B3F1804F28D0A2F53F
:1025E0009432934224D002F58062934220D002F5C7
:1025F000806293421CD002F58062934218D002F5AB
:102600008062934214D002F59032934210D002F5CA
:10261000406293420CD002F58062934208D002F5EA
:102620008062934204D040F20F11204801F0C8FBB1
:10263000A36833F010020AD023F04002202A06D00B
:10264000402B04D04FF48871184801F0B9FB23697E
:1026500033F4807207D0B3F5007F04D040F211113B
:10266000124801F0ADFBA36933F0800304D04FF4AE
:1026700089710E4801F0A4FB94F83D3003F0FF028D
:1026800023B984F83C20204601F01CFC022384F886
:102690003D302068211DFFF731FF012384F83D30D4
:1026A000002010BD012010BD002C01409E760008C6
:1026B00070477047704790F8712090F8720010438F
:1026C00070470000F8B54268B54B9A42044604D9F9
:1026D00040F6EC21B34801F073FBA368B3F1805FCF
:1026E00007D033F4805304D040F6ED21AD4801F01B
:1026F00067FBAD4B22689A42E3686AD133F400531A
:1027000004D04FF42F61A74801F05AFB236933F43A
:10271000806207D0B3F5C06F04D040F6F821A1481D
:1027200001F04EFB636933F00C0200D123B940F68F
:10273000F9219C4801F044FBA36933F4407304D0B1
:1027400040F6FA21974801F03BFBE36933F400437C
:1027500004D040F6FB21934801F032FB2069A368C6
:102760002268E16915680343606903438F480B439E
:102770002840034313605368E06823F44053034345
:102780005360894BA0699A421CBF236A184393681F
:1027900023F4306303439360854B9A4228D103F5B9
:1027A0005843844AD3F8883003F00303D35CB1F56F
:1027B000004F40F06881082B00F24F81DFE813F0F2
:1027C0005E000D015A014D013D014D014D014D01CC
:1027D000440033F4405304D040F6F421714801F032
:1027E000EFFA236A33F4006390D040F6F5218AE7CC
:1027F000714B9A4209D103F5E633D3F888206D4B2B
:1028000002F00C0213441B79D1E76C4B9A4220D1A1
:1028100003F5E433D3F8883003F03003102B00F0D5
:10282000098108D833B3B1F5004F4FF001024FF0E2
:1028300000032DD0DDE0202B00F01981302BF2D1E8
:10284000B1F5004F40F0ED806068430803F5803338
:1028500016E15B4B9A4234D103F5E233D3F888306A
:1028600003F0C003402B00F0E18020D82BBB4E4B7F
:102870009A4250D0B1F5004F40F0B280FEF7DAFD39
:1028800061684A0802EB4003B3FBF1F39BB20022FC
:10289000A3F110004FF6EF71884200F2DE8023F0C2
:1028A0000F012068C3F342030B43C360D6E0802BC3
:1028B00000F0D980C02B00F0C3803B4B9A42B2D1CC
:1028C000CBE0404B9A4211D103F5E033D3F8883086
:1028D00003F44073B3F5807F00F0A880C6D9B3F548
:1028E000007F00F0C080B3F5407FE4E72E4B9A42B2
:1028F00099D103F5C833D3F8883003F44063B3F5B6
:10290000806F00F09380B1D9B3F5006F00F0AB8019
:10291000B3F5406FCFE7FEF78DFD0023002840F0B0
:10292000968002469AE0FEF777F90423F6E72648F8
:1029300002238CE0B0EB023F00F28F80082B49D8D5
:10294000DFE803F005481C48244848482700FEF704
:1029500071FD62684FF4807156080027E1FB006743
:10296000002330463946FDF7A3FC0022174BA0F5A3
:102970004071994271D82368D8606FE014485508B7
:1029800000230021401941F10001ECE7FEF744F972
:10299000DFE750080021002310F50000F3E700BF37
:1029A00080969800D676000800800040F369FFEF1B
:1029B000003801407874000800440040004800409E
:1029C000004C0040005000400024F400FFFC0F00C9
:1029D000000024F401220020C8E7FEF73DFD4FE788
:1029E000FEF728FD626800EB5203B3FBF2F39BB2E3
:1029F0000022A3F110004FF6EF7188422DD8216814
:102A0000CB602BE0FEF728FDECE76068430803F598
:102A1000740303F51053B3FBF0F3E8E7FEF7FCF89B
:102A2000E0E76068430803F50043F4E7214B9A426E
:102A30003FF479AFB1F5004FF0D1FEF7EDF81FE7A5
:102A40001C4B9A427FF4FCAE4FF4004008236268AE
:102A500002EB420181427FF66DAF01220023236623
:102A600063661046F8BD134B9A423FF460AFB1F570
:102A7000004FCAD16068430803F1F47303F5904333
:102A8000B3FBF0F302E7082BE7D801A252F823F0DA
:102A9000E1290008052A00080B2A00085B2A000823
:102AA0001D2A00085B2A00085B2A00085B2A000830
:102AB000232A000800800040436AFF2B10B504461B
:102AC00004D940F61441644801F07AF9636AD807E2
:102AD0000FD5A36A33F4003304D040F619415E48A1
:102AE00001F06EF92268A16A536823F400330B43A6
:102AF0005360636A99070FD5E36A33F4803304D0D7
:102B00004FF44261544801F05BF92268E16A53686E
:102B100023F480330B435360636A5A070FD5236B4A
:102B200033F4802304D040F627414B4801F048F9A4
:102B30002268216B536823F480230B435360636A3C
:102B40001B070FD5636B33F4004304D040F62E41CE
:102B5000414801F035F92268616B536823F4004362
:102B60000B435360636AD8060FD5A36B33F48053CD
:102B700004D040F63541384801F022F92268A16BB3
:102B8000936823F480530B439360636A99060FD5CF
:102B9000E36B33F4005304D040F63C412E4801F07F
:102BA0000FF92268E16B936823F400530B439360A1
:102BB000636A5A063BD52368284A934214D0A2F58B
:102BC0007442934210D002F5806293420CD002F519
:102BD0008062934208D002F58062934204D040F6AE
:102BE00043411D4801F0ECF8236C33F4801304D00A
:102BF00040F64441184801F0E3F82168226C4B6824
:102C000023F480131343B2F5801F4B600FD1636C24
:102C100033F4C00304D040F649410F4801F0D0F826
:102C20002268616C536823F4C0030B435360636AEA
:102C30001B060FD5A36C33F4002304D040F651419A
:102C4000054801F0BDF82268A16C536823F4002305
:102C50000B43536010BD00BFD6760008003801401A
:102C60002DE9F041069D04460F4616469846216818
:102C7000CA6937EA02030CBF01220022B24202D025
:102C80000020BDE8F0816B1CF2D09DB923681A6862
:102C900022F4D0721A609A6822F001029A6020230E
:102CA00084F8713084F87230002384F87030032087
:102CB000BDE8F081FDF7B4FCA0EB08008542D6D258
:102CC000E4E72DE9F3411F4690F87130202B0446CC
:102CD0000D4690464AD1002946D0002A44D090F8AB
:102CE0007030012B42D0012380F8703000234367FD
:102CF000212380F87130FDF793FCA4F8508006463C
:102D0000A4F85280B4F85220009792B2334652B9D8
:102D100040212046FFF7A4FF58B9202384F87130E2
:102D200084F8700006E0002280212046FFF798FF1B
:102D300018B1032002B0BDE8F081A3682268B3F5A2
:102D4000805F0DD123695BB935F8023BC3F30803FB
:102D50001385B4F85230013B9BB2A4F85230D1E74E
:102D60002B7813850135F4E70120E3E70220E1E742
:102D70002DE9F341984690F87230202B04460D4619
:102D8000164660D100295CD0002A5AD090F87030E5
:102D9000012B58D0012380F8703000234367222391
:102DA00080F87230FDF73CFCA368A4F85860B3F5D6
:102DB000805F0746A4F85A6015D123698BB940F2A9
:102DC000FF13A4F85C30B4F85C60B4F85A0080B229
:102DD000B8B9202384F8723084F8700002B0BDE8DE
:102DE000F081FF23EDE723B92369002BF9D07F237E
:102DF000E7E7B3F1805FE6D12369002BF7D03F23EB
:102E0000DFE7CDF800803B46002220212046FFF777
:102E100027FFD0B9A368B3F5805F23680CD122697E
:102E200052B99B8C334025F8023BB4F85A30013B31
:102E30009BB2A4F85A30C8E79B8C33402B70013505
:102E4000F3E70120CAE70220C8E70320C6E773B50D
:102E5000044600264667FDF7E3FB23681B681A0754
:102E6000054617D423681B685B070AD56FF07E43BD
:102E7000009300222B464FF480012046FFF7F0FE1E
:102E8000A0B92023002084F8713084F8700084F801
:102E900072300CE06FF07E430093324603464FF4ED
:102EA00000112046FFF7DCFE0028DBD0032002B033
:102EB00070BD000010B50446002865D08169036824
:102EC000324A002948D0934218D0A2F57442934266
:102ED00014D002F58062934210D002F580629342D2
:102EE0000CD002F58062934208D002F54052934222
:102EF00004D04FF4A971264800F062FF94F87130B5
:102F000003F0FF0223B984F87020204601F024F872
:102F10002268242384F87130136823F001031360BE
:102F20002046FFF7CFFB01282ED0636A13B120465D
:102F3000FFF7C2FD23685A6822F490425A609A68EB
:102F400022F02A029A601A6842F0010220461A60B2
:102F5000BDE81040FFF77BBF9342CFD00D4A9342AC
:102F6000CCD002F580629342C8D002F580629342D1
:102F7000C4D002F580629342C0D002F54052934221
:102F8000BCD040F25711B6E7012010BD0038014017
:102F9000D67600080044004010B586B048B9184BFA
:102FA000DA6C42F00402DA64DB6C03F00403009391
:102FB000009B4FF4005301930024012303940493D6
:102FC00049B9104B029103EB800001A98068FDF71D
:102FD000E5FB06B010BD0129FBD10B4B0293094B59
:102FE00003EB800001A98068FDF7D8FB22460F2182
:102FF0002820FDF747FB2820FDF786FBE9E700BF07
:1030000000100240000000200000111008B5044B21
:1030100003EB80004FF400518068FDF727FD08BDE9
:1030200000000020244B30B5DA6C244C42F0010241
:10303000DA64DA6C89B002F001020092009ADA6C6C
:1030400042F00102DA64DA6C02F001020192019AA4
:103050009A6D42F400329A659B6D03F4003302933B
:10306000029B04230025039303A902234FF0904001
:1030700004930595FDF792FB08234FF0904003A9B8
:103080000393FDF78BFB0E4AA5604FF4E13384E810
:103090000C0020460C23E5602561A5616361FFF704
:1030A00009FF00B1FEE7074B63654FF48073A4F896
:1030B0005830606709B030BD00100240FC020020AB
:1030C0000044004074030020054B10B403EBC0041F
:1030D00033F83010606810BC0122FDF7D9BC00BF86
:1030E0000C000020054B10B403EBC00433F8301083
:1030F000606810BC0022FDF7CBBC00BF0C000020B4
:103100001B4B1C48DA6C70B542F00102DA64DA6CD1
:1031100088B002F001020192019ADA6C42F00202D8
:10312000DA64DB6C03F002030293029B01254FF487
:1031300086630226002403A903930495069605944A
:10314000FDF72CFB4FF4807303A94FF090400393DD
:10315000FDF724FB3046FFF7C5FF2846FFF7C2FF07
:103160000320FFF7BFFF2046FFF7BCFF08B070BD8C
:103170000010024000040048034B03EBC00233F888
:1031800030105068FDF79EBC0C0000203E4BF0B59F
:103190001A683E4B9A428BB074D13D4CE36C43F0BD
:1031A0000103E364E36C03F001030193019BE36C0F
:1031B00043F00203E364E36C03F002030293029B17
:1031C000E36C43F00403E364E36C03F00403039350
:1031D000012502270326039B0697202305A94FF00C
:1031E0009040059307950896FDF7D8FA802305A926
:1031F0004FF09040059306970797FDF7CFFA4027C9
:1032000005A94FF0904005970795FDF7C7FA236E83
:10321000204843F480532366236E03F480530493C1
:10322000049B236C43F480532364236C23F4805366
:10323000236405A900240794059706950896FDF7D1
:10324000ADFA2A4639461348FDF722FC4FF4806355
:10325000059305A9104B06934FF0904008940795ED
:103260004FF40074FDF79AFA05A94FF090400594C9
:1032700006950896FDF792FA2A4621464FF09040AF
:10328000FDF706FC0BB0F0BDD01800200030014067
:1032900000100240000400480000211010B5114C3D
:1032A0002046FEF7D9FFD8B90F4AA0604FF48273C9
:1032B00084E80C002023E3614FF40073A361022330
:1032C0002361012363614FF4E06320626062A062C6
:1032D000E360FFF75BFF2046BDE81040FEF7AEBDA0
:1032E00010BD00BFD0180020003001407FB50C4B4E
:1032F0000C48DA6C42F00402DA64DB6C03F004037D
:103300000093009B802301930123029301A90023D2
:1033100003930493FDF742FA07B05DF804FB00BF86
:1033200000100240000800487FB54FF47A738DF812
:103330000F0000930DF1170201230DF10F01044856
:10334000FEF75CFE9DF8170007B05DF804FB00BFB8
:10335000D0180020013970B5451E561E4418A542EC
:1033600000D170BD15F8010FFFF7DEFF06F8010F61
:10337000F5E70000F0B5394CE36C43F00103E3647A
:10338000E36C8BB003F001030193019B236E43F4C4
:1033900080432366236E03F48043029302270025B3
:1033A000029B08954FF4007305A94FF090400593D8
:1033B0000697FDF7F3F94FF4806305A94FF09040AD
:1033C0000593FDF7EBF9236C43F480432364236CEE
:1033D00023F480430322236429462520FDF752F974
:1033E0002520FDF791F9E36C43F00103E364E36CFE
:1033F00003F001030393039BE36C3B43E364E36C3F
:1034000008953B4004930124049B0694202305A9BE
:103410004FF0904005930797FDF7C0F9802305A969
:103420004FF090400593FDF7B9F906950C4D0797BD
:10343000402605A94FF090400596FDF7AFF905A984
:103440002846059606940794FDF7A8F922463146CA
:103450002846FDF71DFB0BB0F0BD00BF0010024079
:103460000004004838B50C4C05462046FFF723F908
:1034700080B90A4BA06084E828000C23E06020613A
:10348000A061E0616361FFF775FF2046BDE8384049
:10349000FFF710BD38BD00BF6810002000380140A4
:1034A00007B502A94FF47A7301F8010D0122034810
:1034B000FFF707FC03B05DF804FB00BF68100020B5
:1034C00007B502A9002301F8013D01224FF47A73E8
:1034D0000348FFF74DFC9DF8070003B05DF804FBBF
:1034E00068100020013938B5451E4418A54200D1A6
:1034F00038BD15F8010FFFF7D3FFF7E7013938B5ED
:10350000451E4418A54200D138BDFFF7D9FF05F884
:10351000010FF7E773B500F025F900F04DF900F061
:1035200037F955238DF8043000F0DEF900F04EF93C
:10353000012801D100F006FA1C4D00241B4901A806
:1035400000F09EF92B78552B0ED101238DF8043015
:103550001649002301A88DF8053000F091F96A7B27
:10356000134B1A7002B070BD00F030F901280AD177
:1035700000F0E8F92B78552BE7D0631C042C9BB2A4
:10358000E3D81C46DAE700F021F90028F2D12946F9
:1035900001A800F075F92B78552B2646D5D00134BB
:1035A000B6F5407FA4B2F2D3E4E700BF8405002063
:1035B0002C00002010B5354A354904460023E007A9
:1035C00013700B70537093703AD414F00A0F17D025
:1035D00003F00EFA0520FDF729F801F09DFB01F03C
:1035E00033FB68B901F02EFC50B92A4B9B7B13F0DA
:1035F000600F01D1A20741D4980601D521073FD41D
:1036000061070AD503F0F4F90520FDF70FF802F081
:103610007BF802F0AFF8002834D0E2060AD503F0B8
:10362000E7F90520FDF702F801F06EFD10B901F091
:1036300077FD48B3A30615D403F0DAF9002010BDD6
:1036400003F0D6F90520FCF7F1FF01F065FB01F06E
:10365000FBFA0028B9D1104801F0D0FA0028B4D103
:10366000012010BD03F0C4F90520FCF7DFFF0A4874
:1036700001F086FE0028DFD1202010BD022010BD01
:10368000082010BD042010BD102010BDCC0000206B
:10369000451900208220002074050020F8B51B4C3D
:1036A00022781AB140F6B83000F08AFC184B194D58
:1036B000DB7803BB184E194F3046FEF7D1FD0022D0
:1036C00040213846FDF7E4F90220FCF7AFFF032064
:1036D000FFF72AFE030702D42B78002BECD001223F
:1036E00040210E48FDF7D4F923780BB100F07AFCA5
:1036F000287840B2F8BD012BF6D1094A1378002B87
:10370000F2D12B78002BF9D0EEE700BF2E0000207D
:1037100086060020441900201C18002000040048E0
:10372000D30100200278552A02D11046FFF7B8BE17
:1037300041780231C9B2FFF7D5BE10B50446FFF794
:10374000BFFE5528207002D10023637010BDFFF723
:10375000B7FE0146607020B1A01CBDE81040FFF725
:10376000CDBE10BD044B01221A7003210022DA7075
:1037700059701A719A7070478606002008B580212A
:103780000248FDF773F940B208BD00BF00080048C9
:1037900008B5FFF7F3FF074B28B101221A70BDE807
:1037A0000840FFF77BBD18704FF46140BDE808404A
:1037B000FFF758BE8606002008B500F019FC024B42
:1037C0000122DA7008BD00BF86060020014B187880
:1037D000704700BF8606002010B50022C0B0044626
:1037E00040210D48FDF754F90020FFF79DFD20789A
:1037F000552808D1FFF798FD012240210648FDF722
:1038000047F940B010BD617802316A46C9B220461E
:10381000FFF7A0FDF0E700BF0004004810B500224C
:10382000C0B0402104461548FDF732F90220FFF7E9
:103830007BFDFF20FFF778FD5528207010D1002375
:103840006370FF20FFF770FDA070FF20FFF76CFD95
:10385000E070012240210948FDF71AF940B010BD7F
:10386000FF28ECD0FF20FFF75FFD014660700028C5
:10387000EFD0A21C6846FFF76DFDEAE700040048A0
:103880002DE9F041174D90F80080EB78012B0746A9
:103890000E4601D100F0ACFB2C78012C18D1384633
:1038A000FFF79AFFFFF7FAFE20B1FD2333702046A1
:1038B000BDE8F0813046FFF7B1FFB8F1050F04D144
:1038C000EB78012B01D100F09DFB0020BDE8F081D9
:1038D000002CF2D13846FFF725FF3046FFF72DFFC9
:1038E000EBE700BF86060020154B10B51C78012CB5
:1038F0001FD122464FF400714FF09040FDF7C8F8F9
:103900002046FCF793FE00224FF400714FF09040E8
:10391000FDF7BEF82046FCF789FE22464FF4007101
:103920004FF09040FDF7B4F80A20BDE81040FCF7D6
:103930007DBE002CF8D12046FFF7B2FDF4E700BFB2
:103940008606002010B5114C012240212046FDF7CB
:103950009FF80120FCF76AFE002240212046FDF777
:1039600097F80120FFF7E0FC012240212046FDF7F7
:103970008FF80320FCF75AFEFFF7B6FF0A20FCF78A
:1039800055FE034B05225A7010BD00BF00040048CD
:103990008606002010B5B8B010230593012300223D
:1039A0000B9310931193242302240C921293602200
:1039B000072305A80D920F94139314941594FDF703
:1039C0007FF900B1FEE70F220323029003900490D9
:1039D000042168468DE80C00FDF73CFC00B1FEE7D1
:1039E000259016A81694FDF7E9FE00B1FEE74FF406
:1039F0000070FDF78BF8044600B1FEE7FDF714FDFB
:103A00004FF47A73B0FBF3F0FCF794FE0420FCF75C
:103A1000A7FE224621464FF0FF30FCF733FE38B0B8
:103A200010BD000010B5074C07496423062220464C
:103A3000FFF747F92046642304220449BDE81040FB
:103A4000FFF73FB9FC0200200F7700081677000847
:103A50002DE9F047ADF50A7DFCF7CAFDFFF79AFFA7
:103A6000FFF744FC01228021B948FDF711F8B9485D
:103A70004FF0804300251027036001242323C360F7
:103A8000876044600561FEF79FFDB348B34B036058
:103A90004FF47A764FF04808C660C0F8048087601B
:103AA0000561FEF791FDAE48AE4B0360C660C0F8FD
:103AB000048087600561FEF787FDFFF721FB214643
:103AC0002846FFF769FAFFF725FDFFF7ABFA28460E
:103AD000FFF7FAFA3046FCF7A9FD2846FFF702FB8C
:103AE000FFF7A0FFA049A148A14EA24F03F0CCF8D8
:103AF0009E48FCF783FB4FF4FA7382B29B499E48C1
:103B0000FFF7DFF89D49994803F0BEF89748FCF7A6
:103B100075FB4FF4FA7382B294499748FFF7D1F8D6
:103B20004FF00208F6B2FF2087F80080FFF742FD51
:103B300004288246DFF8849200F0BF8023D8012851
:103B400032D0022800F0AF800120FFF7CBFA02202C
:103B5000FFF7C8FA0320FFF7C5FA002389F8003001
:103B6000002C40F0D1808649804803F08DF87F48D2
:103B7000FCF744FB4FF4FA7382B27C497E48FFF7AE
:103B8000A0F8012520E0102800F0A280202800F0F5
:103B9000AD800828D8D10020FFF7A4FA0320FFF752
:103BA00093FA7CB177496FE00020FFF79BFA50460B
:103BB000FFF78AFA0220FFF787FA0320FFF784FA5B
:103BC000002C60D1002501244FF49670FCF72EFDE7
:103BD00099F80030002B54D0002C52D000236A48B2
:103BE00089F8003000F0CEFD81464FF4FA70FCF702
:103BF0001DFD19F0FF0940F0A580634A63495B4849
:103C000003F01EF85948FCF7F9FA4FF4FA7382B240
:103C100056495948FFF755F84FFA8AFA4FF4C872D7
:103C200049465B4803F004F8BAF1010F6FD101F087
:103C3000F5FE30BB01461422564802F0F9FF554903
:103C4000554800F01FFD10F0FF0F1AD19DF80D3000
:103C5000BBB1524C5048214600F0D4FD88B914F84D
:103C60000B2B009433464E49404802F0E9FF3F4891
:103C7000FCF7C4FA4FF4FA7382B23C493E48FFF7AE
:103C800020F82C464FE74749384802F0FDFF3748F7
:103C9000FCF7B4FA4FF4FA7382B234493648FFF7AE
:103CA00010F8002590E70020FFF71CFA0120FFF72D
:103CB0000BFA002C86D03C49E6E70020FFF712FA09
:103CC0000220FFF701FA002C3FF47CAF3749DBE715
:103CD0000020FFF707FA0220FFF7F6F90320FFF7AD
:103CE000F3F9002C3FF46EAF3149CDE70020FFF728
:103CF000F9F90120FFF7E8F90220FFF7E5F9002CB8
:103D00003FF460AF2B49BFE725461C465CE7BAF19C
:103D1000020F02D101F074FF8BE7BAF1040F02D158
:103D200002F0ECF985E7BAF1080F02D0BAF1100FF2
:103D300002D102F057FB7CE7BAF1200FA1D102F0CB
:103D40009DFC76E71C49094802F09EFF8FE700BF03
:103D500000080048201300201C1800200004004028
:103D60005C180020000800401B770008CF000020EE
:103D70009D180020CD000020FC0200209A7700084A
:103D8000217900089E780008537900085E790008C0
:103D9000D80C0020801D00209C0800209C180020CA
:103DA000EF7900081D78000848780008737800084B
:103DB000CA780008F6780008BE7A0008D50100200D
:103DC0007047000010B5074C00232370064B188085
:103DD000064B1A6850621846FEF742FA2378002B09
:103DE000FCD010BD46190020D60100202013002071
:103DF000214B07B51A6E42F001021A661A6E02F0E4
:103E000001020092009A9A6D42F080529A659B6D71
:103E100003F0805301930320019BFCF715FC002263
:103E200011466FF00B00FCF72DFC002211466FF0DD
:103E30000A00FCF727FC002211466FF00900FCF78E
:103E400021FC002211466FF00400FCF71BFC00224D
:103E500011466FF00300FCF715FC002211466FF0CD
:103E60000100FCF70FFC002211464FF0FF30FCF779
:103E700009FC03B05DF804FB001002407FB5026846
:103E80000F4B9A4219D103F5604301A91A6E42F40F
:103E900080521A661B6E03F480530093009BE0234C
:103EA00001930223029300230393032304934FF00F
:103EB000904005230593FCF771FC07B05DF804FB07
:103EC000003001401FB50368B3F1804F15D103F5F1
:103ED00004331C209A6D42F001029A659B6D03F039
:103EE0000103019301220021019BFCF7CBFB1C2065
:103EF000FCF70AFC05B05DF804FB144A934210D1AC
:103F0000134B9A6D42F002029A659B6D03F0020317
:103F100002931D2001220021029BFCF7B3FB1D2010
:103F2000E6E70C4A9342E5D1094B9A6D42F0040250
:103F30009A659B6D03F0040303931E200122002168
:103F4000039BFCF79FFB1E20D2E700BF000400404C
:103F500000100240000800407FB502680F4B9A42F3
:103F600019D103F5E63301A99A6D42F400329A653E
:103F70009B6D03F400330093009B0C2301930223F9
:103F8000029300230393032304934FF090400723ED
:103F90000593FCF703FC07B05DF804FB0044004008
:103FA0007047FEE7FEE7FEE7FEE7704770477047A1
:103FB00008B5FCF72DFBBDE80840FCF7EABB0000A4
:103FC000054B00221A70054B1880054B1A68506289
:103FD0001846FEF745B900BF44190020D001002063
:103FE0001C1800200148FEF789B900BF1C180020EA
:103FF000034B002228209A70DA70FCF785BB00BFC3
:10400000D0010020034B01229A7028200022DA7090
:10401000FCF77ABBD001002008B54FF48060FCF7B4
:1040200061FD4FF40050BDE80840FCF75BBD0000A7
:10403000B0F5806F08B506D1084B9978012201B11F
:104040001A71DA7008BDB0F5005F06D10020FEF7E6
:10405000DDFF012804BF014B587108BDD0010020CD
:104060000148FEF79BB900BF201300200148FEF76E
:1040700095B900BF1C1800200148FEF78FB900BF9A
:104080005C180020154A90420CD1154AD38823B100
:10409000013BD3800020FFF76FB8124B01221A704A
:1040A000FEF72CB9104A904209D10D4A13881BB172
:1040B000013B13800120EEE701220C4BEFE70C4A95
:1040C000904209D1064A13891BB1013B138102209A
:1040D000E1E70122074BE2E7704700BF2013002011
:1040E000D0010020461900201C180020441900208F
:1040F0005C180020451900200C4B1A68002142F082
:1041000001021A6099601A6822F0A85222F4102263
:104110001A604FF48052DA601A6822F480221A6022
:104120009961034B4FF000629A60704700100240A3
:1041300000ED00E0F8B5034610464C4A1278013A0B
:10414000052A0CD8DFE802F003254560696F7A295B
:1041500000F28980464C1A4619448A4201DB00204D
:10416000F8BD657C62B9FF2D05BFA27C02700270AC
:10417000E27C18BF627C42700122013292B2ECE70D
:10418000A618FF2DA2EB03050CBFB67C367C465566
:10419000F3E7B1F5007F66D8364C1A4619448A42D7
:1041A000DDDA657C62B9FF2D05BFA27C027002706A
:1041B000E27C18BF627C42700122013292B2EEE7CB
:1041C000A618FF2DA2EB03050CBFB67C367C465526
:1041D000F3E7B1F5047F46D8274E284D1A46194417
:1041E0008A42BCDA4AB92A68127B02702A68527B7A
:1041F00042700122013292B2F2E73468144414F89A
:10420000027CD41A0755F5E7B1F5007F2BD80A4692
:104210001B49194402F0E7FCA1E7B1F5007F22D861
:104220000A461849F5E7B1F5007F1CD8164C1A4626
:1042300019448A4293DA657962B9FF2D05BFA279E4
:1042400002700270E27918BF627942700122013275
:1042500092B2EEE7A618FF2DA2EB03050CBFB679CC
:1042600036794655F3E70320F8BD00BFCE000020A5
:1042700060130020E01000203000002034000020F7
:10428000680E0020DA1300201C16002070B50C46C2
:104290001146664A1278013A052A23D8DFE802F06F
:1042A0000333668B9AA07A2C00F2BE8000F10E02D6
:1042B00092B2023C5E4B00F10F050326FE2C9E5489
:1042C000ADB200F110020FD85C5592B213441846FB
:1042D0002246023102F087FC564B1B78FE22022B4D
:1042E00002550CD0002070BD92B2FF265E559E5440
:1042F00000F11202113080B292B21C54E6E701F0D4
:10430000D1FB80B270BDB4F5007F00F28D8000F16A
:10431000100292B2023C484B00F111050326FE2C1C
:104320009E54ADB200F1120210D85C5592B2134403
:1043300018462246023102F056FC3E4B1B78FE2204
:10434000022B02550ED101F0EBFCDAE792B2FF2608
:104350005E55250A9D5400F11402133080B292B2CA
:104360001C54E4E7354B01221A70BBE7B4F5047F17
:104370005AD8334B023C22460231186802F033FC13
:10438000304B1B68220CDA72220A1A735C73591EB6
:1043900003F10D00002211F8014F2244884292B22D
:1043A000F9D1110A9973DA73224B1B78022BD9D1F8
:1043B00001F0D2FEA5E7B4F5007F35D8224B2246A6
:1043C000184402F010FC1B4B1B78022BCAD102F0E0
:1043D00097F896E7B4F5007F26D822461B4BEFE707
:1043E000B4F5007F4FF003001FD8023CFE2C184BA1
:1043F00081BFFF225A71220A9A7194BF06220822B5
:10440000187194BF5C71DC71134418462246023166
:1044100002F0E9FB074B1B78FE22022B02557FF4CA
:1044200061AF02F097F96CE7032070BDCE00002069
:1044300060130020CD000020E0100020E0010020EB
:104440003000002034000020680E0020DA13002025
:104450001C1600202DE9F74F037803F00703022B09
:10446000054600F0CE80042B00F0E980012B40F0DF
:10447000EF804778D0F808627849C41D3A46204654
:1044800002F0A2FB002840F08F80062385F80C3252
:10449000EB78AA7885F818021B0443EA02636A796C
:1044A00013432A7943EA02230093834680466C4BE8
:1044B00096F801A053F82B40337813F0100203F064
:1044C0000807C3F3C0001FFA8AFA57D0002F5AD04A
:1044D00096F803900127811C0F4457444F44BFB204
:1044E000E01D237084F801A0002A50D04FF0000393
:1044F000A370E3702371B378637184F8069009F1B7
:104500000303F1185246019302F06DFB019B0AEB85
:1045100003014A46314404F5837002F064FBA4F8B9
:1045200006723744C4F808722046FFF793FFD0B9EB
:1045300095F81832013385F818320BF1840345F8E9
:104540002340B4F80632A278434494F803804FEA3B
:10455000084848EA0268627948EA0208227948EA8B
:10456000022898444644009B434502D9BBF1000F02
:1045700001D000202AE04FF0010B98E72FB196F808
:1045800006900427A7E7B946A4E79146F9E7B37870
:10459000A370F378E370337923717379637184F8CE
:1045A000069009F10603ACE73A462E49204602F090
:1045B0000BFBF0B93378A3B9013604222A493046FF
:1045C00002F002FB28B9032385F80C3203B0BDE8E2
:1045D000F08F04222549304602F0F6FA58BB042336
:1045E000F2E75A1E222A26D8062B0CBF05230223E7
:1045F000EAE73A461E49204602F0E6FAD8B908230F
:10460000E2E746781B49C41D3246204602F0DCFA38
:1046100018B9012385F80C32ABE73246164920461B
:1046200002F0D2FA0028F4D032461449204602F0B3
:10463000CBFA0028EDD0002085F80C02C6E74278BE
:104640000F49073002F0C0FA0028F4D10A23BBE773
:10465000002380F80C320120B8E700BFF57A00088B
:104660003C000020F87A0008FA7A0008FF7A000877
:10467000047B0008067B0008117B00081E7B0008F5
:104680002B7B00082DE9F347044601AA0D460020C4
:104690000221FFF74FFD9DF804209DF8053053EAF5
:1046A00002236DD02A4601210220FFF743FD2B781B
:1046B00003F00806C3F3C009DB060AD42A46072123
:1046C0000220FFF737FD95F8018006B1AE79042787
:1046D00009E02A4604210220FFF72CFD95F801800D
:1046E00006B1EE78012709F10209C1444F4437446D
:1046F000BFB22A4639460220FFF71CFD2B782370F3
:1047000013F0100F84F8018004F1070004F5837A98
:104710002AD00023A370E3702371AB786371A67174
:1047200006F10309424605EB090102F05CFA08EBC9
:10473000090132462944504602F055FA637921793D
:10474000A4F80672B81C2A4643EA012180B2FFF79A
:10475000F1FC0646A0B9C4F808522046FFF77AFEDD
:10476000304602B0BDE8F087AB78A370EB78E37019
:104770002B7923716B796371A67106F10609D1E774
:104780000126EDE770B51D4C0023237063700646CB
:10479000FBF734FDD1230330A370FF284FF0010352
:1047A000E37027D9030E2371030C6371030AE071D0
:1047B000A371082023185422225402225A7083180D
:1047C0000F4A051D1288E2523046FBF717FD3146AD
:1047D0000246601902F007FA3046FBF70FFD291870
:1047E0008B1E1A0A22706370044A0020BDE87040D4
:1047F000FFF74CBD20710520DCE700BF801D0020C5
:104800004B7B0008F8B590F80C32082B0E462DD1E2
:10481000D0F808522B7803F00F02092A28DCC4785C
:104820008178240444EA016441790C43017944EA23
:104830000124D1430C44272C1AD830466F1CC3F3F3
:10484000C013394600F8013B02F0CDF9297801F098
:104850000F0173180025224634445D70394406F177
:104860000B0002F0C0F9E5722846F8BD0120F8BD42
:104870000320F8BD064A1146002321F8043B53608B
:1048800093704B600B81D370D3731374704700BF68
:10489000822000202DE9F04F89B020238DF81930B7
:1048A00008AE08238DF81A3000238DF81B308DF8E0
:1048B0001C308DF81D308DF81E3006F8081D02469C
:1048C00004463146032002F0E7F8834628B14FF052
:1048D000610B584609B0BDE8F08F63780293E31886
:1048E00093F80190B9F1080FF1D013F8011C019071
:1048F00001F080030393029B0496E55C8046074623
:1049000003464FF0FF0A039A002AE2D009F1210280
:1049100002EB05128DF81920002D5FD109F101027B
:10492000A6780AFA02F126EA010642F040028DF862
:104930001A608DF81B20281D224604990593C0B2E9
:1049400002F0AAF82278802AC1D194F801C004EBC1
:104950000C0E1EF8012C50B2002802F0800302F069
:104960000F020393C2F10802059BBCBF14F80C3080
:104970000193D2B2B8BF9EF8013009F1010E724521
:10498000A5D1002D6FD19DF81A60E77894F80480C6
:104990000AFA02F226EA0202A678164362796271E6
:1049A00088EA02027A409DF808106170724000287F
:1049B000A670E77084F80480A271A4DA019A954287
:1049C00009BF09F10109AD186D0053FA89F919BF42
:1049D000EDB29946EDB25FFA89F994E7012D10D155
:1049E00009F10102E778A6788DF81A600AFA02F157
:1049F00027EA010742F040028DF81B708DF81C2059
:104A000099E7022D14D109F1010294F80480A678E7
:104A1000E7788DF81A600AFA02F128EA010842F0F4
:104A200040028DF81B708DF81C808DF81D2082E7E8
:104A3000032D7FF44CAF09F101026179A678E77884
:104A400094F804808DF81A600AFA02F021EA000155
:104A500042F040028DF81B708DF81C808DF81D10FF
:104A60008DF81E2067E7012D0BD19DF81B7094F87F
:104A700003800AFA02F227EA0202A7781743227992
:104A80008DE7022D0BD19DF81C800AFA02F228EA6C
:104A9000020294F8028042EA0808E2787FE7032DD8
:104AA0007FF415AF9DF81DE00AFA02F22EEA020229
:104AB00094F802E042EA0E0271E7000070B5104C73
:104AC000D0F802100F4BC4F80710867905469720DE
:104AD00098707020D870E0780A280ABF062002205B
:104AE00059600949431C282246545A5402302A4628
:104AF00001F0D2FF10B9AB78A37370BD612070BD17
:104B000082200020840500208605002038B5184C3E
:104B1000E278042A17BF0346D0F8023033F8031FA7
:104B2000A18016BF9B786360A371124B8179054603
:104B300093209870042A4FF07000D8700DD16268ED
:104B40005A60282219725A720B492A46082001F02D
:104B5000A3FF58B9AB78A37338BD88221A71074AEE
:104B600010889278A3F80500DA71EAE7612038BD71
:104B70008220002084050020860500208620002059
:104B800038B51A4CE278072A17BF0346D0F802302E
:104B900033F8031FA4F8071016BF9B78C4F807303A
:104BA0006372134B8179054695209870072A4FF060
:104BB0007000D8700ED1D4F807205A6028221972DC
:104BC0005A720C492A46082001F066FF58B9AB78A2
:104BD000A37338BD88221A71074A10889278A3F807
:104BE0000500DA71EAE7612038BD00BF82200020AD
:104BF00084050020860500208920002010B501468C
:104C000004460E4801F084FF08B1612010BD6278AF
:104C1000531EDBB2E35C9B060ED42378802B01D1BC
:104C2000042AF2D0064B02221A702378802BECD192
:104C3000044B01221A7010BD622010BDD47400080C
:104C4000CD000020CE00002013B5164B164C1B885B
:104C5000ADF80430224601A9022001F01DFFF8B989
:104C60006388124C238023789B09012B10D00AD330
:104C7000022B11D00C49042001F0DFFE80B9012382
:104C8000237402B010BD0423E3700123A370F1E785
:104C90000723E3700223F9E70A23E3700323F5E710
:104CA0006120EEE7DE7400088405002082200020E9
:104CB00010B5164B164C9A88186886B00221ADF8CC
:104CC0001420DA881B89ADF80C30124B0490187848
:104CD000ADF80820234604AA33288CBF07200520FE
:104CE00001F058FE024670B9009402AB3A2104204C
:104CF00001F005FE38B9009403AB012268210420BD
:104D000001F0FDFD00B1612006B010BDE0740008A7
:104D1000840500202C00002010B5FFF7ABFDFFF745
:104D2000C7FF044638B9054B012205201A70FBF76E
:104D30007DFC204610BD6124FBE700BFE902002096
:104D400030B51A4B1A4D9A88186887B00424ADF80C
:104D5000142033F8042C33F8023CADF80C30154B1A
:104D600004901878ADF808200C238DF8133004AAAD
:104D70002B46022133288CBF072005208DF81140D7
:104D800001F008FE024670B9009502AB3A212046B8
:104D900001F0B5FD38B9009503AB0122682120462A
:104DA00001F0ADFD00B1612007B030BDEA7400082C
:104DB000840500202C00002010B51E4B1E4C998845
:104DC00086B00246ADF81410186833F8041C33F8A6
:104DD000023CADF80C30194BADF808101B7804906C
:104DE000332B174B8DF8122019888CBF0620042016
:104DF00003299CBF042119801B888DF8113004AA57
:104E000023460221013001F0C5FD024670B900942D
:104E100002AB3A21042001F072FD38B9009403ABD3
:104E200001226821042001F06AFD00B1612006B072
:104E300010BD00BFEA740008840500202C0000208B
:104E40004400002073B593214648464DFFF722FDEC
:104E500008B1612626E02846FFF758FE06460028DE
:104E6000F7D1414CA37B59071FD4A37B5A070AD51E
:104E700097213C48FFF70EFD0028EAD13948FFF79B
:104E80001DFE0028E5D1A37B9B061AD40120FFF765
:104E900093FF364B02221A70A37B13F0600F5CD194
:104EA000334B1A70304602B070BD95212846FFF78B
:104EB000F1FC0028CDD12846FFF762FE0028D4D0AF
:104EC000C7E7FFF73DFF0123E3732A4B1A88ADF8CC
:104ED00004209B78234A8DF8063001A9032001F0B5
:104EE000DBFD0028B5D11F49042001F0A6FD0028F4
:104EF000AFD11C49022001F088FD0028A9D1EA7831
:104F000012F00F031BD0012B1BD0022B1BD0032B45
:104F10001BD0042B1BD0052B1BD0062B1BD0072B23
:104F20000CBF80234FF48073134990064B80ADD59E
:104F3000D2064CBF6B792B791B090B80A6E7102397
:104F4000F2E71823F0E72023EEE72823ECE73023ED
:104F5000EAE74023E8E76023E6E79B06A2D50422C0
:104F60009EE700BF8405002082200020CD000020A5
:104F7000CE000020F07400084400002070B5314DD0
:104F8000314CAA78298886B004AB8DF812202A46C5
:104F9000ADF8101032F8031FADF8141092788DF8A8
:104FA00016202A4A127805AE332A98BF1E460021E1
:104FB0000D22204601F03CFE0021C4F80D10617660
:104FC00004F11A00224C3C2201F032FE2346324604
:104FD0000321042001F0DEFC08B171252EE01D4BF9
:104FE00002261E70EB88ADF80C300122009403AB52
:104FF0006821042001F083FC02460028EDD1012540
:10500000009403AB682103208DF80C5001F077FC6D
:105010000028E2D12B46009432466821032001F09B
:105020005DFD05460028D8D1A378012BD5D1E378C2
:10503000512BD2D141F2EC30FEF7C4FE284606B027
:1050400070BD00BFF67400080F2100202C00002066
:1050500084050020E902002073B5052304468DF87D
:1050600004300246002301A903208DF805308DF895
:10507000063001F011FDE0B90F4B01225A7604F120
:105080000E05A21C194652F8046B43F8046BAA42A1
:10509000F9D112781A70D4F80330C1F80D30D4F871
:1050A0000730C1F81130D4F80B30C1F8153002B018
:1050B00070BD7120FBE700BF0F2100201FB5044623
:1050C0000D220021684601F0B3FD1D238DF800304C
:1050D00008238DF8063001238DF80730094B22464E
:1050E000D3F80D30CDF801306946092001F0D4FC29
:1050F00020B92146032001F088FC00B1712004B0E2
:1051000010BD00BF0F21002008B5FFF737FF18B909
:105110000248FFF7A1FF00B1712008BD84050020FF
:1051200007B50F4B0F481A889B78ADF804208DF80F
:105130000630FFF7C3FF18B1712003B05DF804FB20
:10514000084B01AA0321042001F024FC0028F3D11C
:10515000054B02221A70054B05221A70EDE700BFBD
:10516000FE74000884050020CD000020CE00002041
:10517000F0B585B0FF240A9D402A2C704FF0000442
:105180006C704FD8440750D46FF00E0005B0F0BDDE
:10519000022104A84E1C014401F8102C22B3402A1D
:1051A0001ABFD10801310821481EA2EBC00212F03B
:1051B000FF0245D001249440013C012964B22CD067
:1051C0004FF0000E4FFA8EF706EB0E01B842C9B24F
:1051D0000EF1010E1ADC1AB304AADB5D4E1C114459
:1051E0001C40F6B201F8104C4FF49B70FEF7EAFD3C
:1051F0002A466946304601F04FFC0028C4D12946B2
:10520000042001F01AFC0028C0D0BDE70DF1100CFD
:105210006144DF5D01F8107CD4E731460027DBE70D
:105220000E46E1E76FF00C00B0E78DF800000124B6
:10523000C0068DF80140ABD58DF802100321A8E718
:105240000129D1D04FF0FF34BAE72DE9F04F89465C
:10525000ADF50B7D98460646D0B95FFA83F8022576
:1052600015F0080314BF0427032700930AAB03EBD0
:10527000070A02EB08030437444601934FF0210B61
:10528000019B9C420CDB00200DF50B7DBDE8F08FEF
:10529000012803D00228E2D0F120F5E70A25DFE754
:1052A000FF2C00D80EB1012E0CD1009B8DF8285098
:1052B000A4EB080209EB82028DF829B0CBB98DF876
:1052C0002A401BE031228DF82921220A8DF82B215A
:1052D000A4EB08024FF49B7059F822204B928DF8F2
:1052E00028518DF82A41FEF76DFD02AA4AA908202F
:1052F0000EE0210A8DF82A408DF82B101268CAF8AA
:1053000000204FF49B70FEF75DFD02AA0AA9384603
:1053100001F0C2FB02A9042001F08FFB0028BBD1E1
:105320000134A4B2ACE7000010B5134B86B01B8863
:10533000ADF8143004AC09238DF80F300DF10F02D5
:1053400023460121022001F025FB18B16FF00E0069
:1053500006B010BD094B042018700122009405AB63
:10536000682101F0CCFA0028F0D12146022001F09A
:1053700064FB0028ECD0E9E701750008E902002091
:1053800030B587B00446FFF7CFFF054620B16FF078
:105390000E02104607B030BD0520FBF747F902ABFF
:1053A00000932A462B4629462620FFF7E1FE0246B7
:1053B0000028ECD19DF8093006A9013351FA83F396
:1053C00013F8103C9B07E2D403AB03CB044B6160A2
:1053D000022120601970034B06211970D9E700BF24
:1053E000CD000020CE00002030B585B02B238DF8F5
:1053F0000530830614468DF804001BD402254FF4B3
:105400009B70FEF7DFFC224601A9284601F044FB11
:1054100048B92146042001F010FB002818BF6FF0A6
:105420000E0005B030BDFF232370002363706FF0C2
:105430000E00F6E70B68CDF806304B68CDF80A3061
:105440000A25DCE72DE9F04FADB0282905461646C0
:10545000BDF8D8403DD120B1012816D0022840F037
:10546000C780022717F008094FEA940414BF4FF0D1
:10547000040A4FF0030A04EB93084FF0200BA045F9
:1054800005D100202DB0BDE8F08F0A27EAE7FF2CF8
:1054900000D80DB1012D0AD18DF814708DF815B01A
:1054A000B9F1000F40F083808DF8164084E030237E
:1054B0008DF815304FF49B70230A8DF814708DF819
:1054C00016408DF81730FEF77DFC09AA05A90420C7
:1054D00079E0012814BF4FF002084FF00A0818F0D5
:1054E000080214BF4FF004094FF00309E4090192C8
:1054F00009F101020292621C02EBD312520193B233
:1055000003932CAB4FEA441B002799444FF01F0A2A
:10551000E219082A00D80DB1012D30D14FF0230334
:105520008DF81530019B8DF81480002B59D18DF822
:1055300016B04FF49B7009F89CACFEF743FC029840
:1055400009AA05A901F0A8FA09A9042001F075FA31
:1055500000284DD19DF82620002A49D106EBC7101E
:1055600080220DF1270101F03EFB0BF120031FFA11
:1055700083FB039B9B4507F10107C9D181E73322D8
:105580008DF815204FEA1B228DF817204FF49B70E1
:1055900000228DF819208DF814808DF816B08DF842
:1055A00018A0FEF70FFC09AA05A90620CAE7230ADE
:1055B0008DF816408DF817304FF49B70FEF702FC03
:1055C00009AA05A9504601F067FA09A9042001F0CB
:1055D00034FA68B9DDF8273046F8043B0134A4B248
:1055E0004DE74FEA1B228DF816B08DF81720A0E783
:1055F000F12047E72DE9F04F1C464FEA9309414B54
:105600008DB012F0030F4FEA92060546186801901C
:10561000174688460CBFB6B20136A2103DB98DF8C8
:10562000062001A904AA032001F036FA10E0012D9A
:1056300093B20BD10A218DF804101B0A8DF80620B5
:105640008DF8073004AA01A90420EDE7022DF4D05B
:105650009DF81030802B4FD107EB040BE4B204F01F
:10566000030A52460DF1130102A84FEAAB0B01F0F9
:10567000BAFA95BB8DF806B004AA01A9032001F07F
:105680000BFA9DF81030802B39D13C4404F0030410
:10569000C4F10404E4B2C4F1070104AB2246194486
:1056A00003A801F0A0FAA8EB0A0B524602A958463B
:1056B00001F099FA224603A908EB070001F093FADA
:1056C0004B46324659462846FFF7BFFD002814BF17
:1056D000F12000200DB0BDE8F08F022DD1D10A23BA
:1056E0008DF806B0CBF3072B8DF804308DF807B09A
:1056F00004AA01A90420C2E70024A246D3E700249B
:10570000D1E700BF0375000810B5184A1346C6B0AC
:1057100053F8040B05901B88ADF80C3006ACD38809
:10572000ADF8103005AA23460421052001F032F916
:10573000C8B90F4B03221A706821009403AB0122F1
:10574000042001F0DCF870B9009404AB01220A21B6
:10575000042001F0D4F830B91420FAF767FF4FF4B1
:10576000C870FEF72FFB46B010BD00BF07750008DC
:10577000E902002030B5C1B000214FF480726846C4
:1057800001F056FA6946144801F0C2F918B99DF8BB
:105790000220012A03D06FF03E0041B030BD0F4B14
:1057A0000DF1220183F828201C460DF1020252F867
:1057B000045B43F8045B8A42F9D109490A4652F86E
:1057C0001F3D236253684B60064B02221A70064B42
:1057D00003221A70E1E700BF0F7500086521002061
:1057E00085210020CD000020CE0000202DE9F347C8
:1057F0004049414B0A78414C1A7082F001020A700C
:1058000094F804A022785A7094F802806278E778BD
:105810009A70064683F803801F719946BAF1000F0B
:1058200061D083F805A006255246354909EB0500ED
:1058300001F0D9F994F8053105EB0A00C0B21BB9A3
:10584000B8F1040F04D11FB9421C09F80030D0B2DE
:105850002C4F29493B78042B01BF2822431C09F80F
:105860000020D8B2324601F017F9054600283CD195
:10587000B378F22B16D1F078FFF79EFA02A973885D
:1058800021F8043D3B78042B03BF28233246032034
:10589000324614BF02208DF8063001F0FDF80120D9
:1058A000FFF78AFA72783B783244042B0BBF12F868
:1058B000053C12F8033C84F8063184F806310CBF2D
:1058C00012F8043C12F8023C84F8073194F80631CF
:1058D000902B0CD194F80731002B18BF7225284665
:1058E00002B0BDE8F08705259EE77125F7E7722530
:1058F000F5E700BF4800002091220020E1010020D0
:10590000E6010020CE000020F8B50D4C0D46A42184
:10591000064600276170A0701946601D2770E5706B
:10592000227101F060F9042E84F8057103D115B9D4
:10593000044B02221A700448BDE8F840FFF756BF36
:10594000E1010020480000208E21002070B4074CA7
:105950000025B026A07025706670E170257184F86E
:105960000521184670BCFFF741BF00BFE1010020D0
:1059700070B5094C0025A070E170D626601D19464F
:1059800025706670227101F02EF984F805510348E4
:10599000BDE87040FFF72ABFE10100208E21002002
:1059A00007B500230093A8238DF80730074B024664
:1059B0005B68CDF803306946082001F06DF80030CF
:1059C00018BF012003B05DF804FB00BF7405002080
:1059D00010B50C460F49024686B0086849686B4608
:1059E00003C3A2F10D03592B11D80B4B8DF80120E5
:1059F0008DF802405B68CDF8033002AA69460820A2
:105A000001F04AF8003018BF012006B010BD012097
:105A1000FBE700BF167500087405002010B5A0B0A4
:105A200001A8FFF7BDFF044670BB9DF8061001F00A
:105A3000F00110292FD19DF81030E12B2BD19DF8CA
:105A400012300E2B29D120AB581810F87C3C032BB8
:105A500015D110F87B2CFF2A04BF10F87A3C10F8FF
:105A6000792C0F4808BF42EA032201AB0CBF053274
:105A70000332194401F0B7F8204620B010BD2BB90D
:105A8000013189B27A29DED90124F5E7013B012BE6
:105A9000FAD80531F5E70524EEE70324ECE700BF6B
:105AA000701300202DE9F041A0B001A8FFF778FFA6
:105AB000064620B10126304620B0BDE8F0819DF8B1
:105AC000064004F0F004102C44D19DF81030E12B76
:105AD00040D19DF812300E2BECD120AB234413F8AB
